:1000000009308A00692900000C00532A4129540054
:100010000C00C6164F270001C6164F234600CC160B
:100020004F270001CC164F234600410048005328BB
:10003000AD12641020104329AD1233173133801EE6
:100040004430840083130008031933280230F80079
:10005000F701F70B2928F80B28289730F700F70B42
:100060002F28800B262808004B183828871339289A
:100070008717A6132608831687008312CB184228F9
:1000800007134328071726132608831687008312B1
:100090004B194C2887124D288716A612260883165E
:1000A00087008312CB1956280712572807162612E5
:1000B000260883168700000083128714A6102608DE
:1000C000831687006328642883128710A6102608E9
:1000D0008316870083120800CC01A6172608831612
:1000E000870000308312871B0130CC0426172608B6
:1000F0008316870000308312071B0130F7000310BE
:10010000F70D7708CC04A616260883168700003062
:100110008312871A0130F700F70DF70DFC30F70551
:100120007708CC0426162608831687000030831231
:10013000071A0130F700F70DF70DF70DF830F70546
:100140007708CC044C08F8000800A610260883168F
:1001500087008312A61126088316870083122611B2
:1001600026088316870083128711A6112608831696
:10017000870087170717871607168312071526119A
:10018000260883168700000083128714A61026080D
:1001900083168700000083126C207808CB0087103C
:1001A000A610260883168700000083128714A61065
:1001B000260883168700DC2883126C207808CA0082
:1001C0008710A6102608831687008312A613260818
:1001D000831687008312261326088316870083124E
:1001E000A612260883168700831226122608831675
:1001F000870083124B0EF700F030F70577084A04AA
:10020000F8007808CA00CA1F07298316B928C80849
:10021000031D0C2987110D298715A61126088316A1
:100220008700000083120711261126088316870015
:10023000000083128710A6102608831687008312F9
:10024000490ECA000F30CA054A08CB0034204908BD
:100250000F39CA00CB00342008002830B7000C301A
:10026000B8000130B9000630BA008710A610260881
:100270008316870083128711A6112608831687002C
:100280008312071126112608831687008312A613EE
:1002900026088316870083122613260883168700F4
:1002A0008312A612260883168700831226122608B8
:1002B000831687008312A6102608831687008312F0
:1002C000A611260883168700831226112608831696
:1002D00087000F308312C40020200130B60036089A
:1002E000033C031C7B290330CB0034200530C400C1
:1002F0002020B60A6F290230CB0034200530C4001C
:100300002020B6013608033C031C922937303607FB
:10031000840083130008BB00C8013B08C900A52066
:10032000B60A82298A150A129729450B98299B2912
:100330004030C6009C29C60101304402C607460869
:100340008038C700C8014708C900A5200800430835
:10035000073A0319B5290B3A0319BA29063A0319C2
:10036000C229023A0319C829CD290130C400C500A9
:100370009521D229C8010130C900A5200230C4004E
:100380002020D2290130C4000230C5009521D22995
:10039000C8011030C900A520D2290130C800430887
:1003A000C900A52008000B08B6008B13831603179D
:1003B0008C170C140000000083120313B61B8B175C
:1003C00003170C087F390319272A0313B6000317F4
:1003D0000D080313B70003170F080313B8003608FE
:1003E000C300A721370803178D000313380803172C
:1003F0008F0003130B08B9008B13831603178C1798
:100400000C140000000083120313B91B8B17031791
:100410000C0D0E0D7F390319272A0313B60003179D
:100420000D080313B70003170F080313B8003608AD
:10043000C300A721370803178D00031338080317DB
:100440008F008D0A03198F0A0313D329031703138F
:10045000080083160613831206130830F800302AAA
:100460000000F817412AF813C30C03180617031CE1
:1004700006137817412A7813F80B342A3F2A000014
:1004800006173F308400840B432A0000F81B332AF0
:10049000781B3B2A08000B08B6008B138316031742
:1004A0008C170C140000000083120313B61B8B176B
:1004B00003170C087F3903199F2A0313B60003178B
:1004C0000D080313B70003170F080313B80036080D
:1004D000C3002922370803178D00031338080317B8
:1004E0008F0003130B08B9008B13831603178C17A7
:1004F0000C140000000083120313B91B8B170317A1
:100500000C0D0E0D7F3903199F2A0313B600031734
:100510000D080313B70003170F080313B8003608BC
:10052000C3002922370803178D0003133808031767
:100530008F008D0A03198F0A03134B2A0317031325
:100540008A150A12A9290C1CAF2A0130A207031828
:10055000A30A0319A40A0319A50A0C10C32A0F0839
:10056000FA000E08F7000F087A02031DAF2A770879
:100570000C1CCC2A0130A2070318A30A0319A40AF1
:100580000319A50A0C100F08FA000E08F7000F084F
:100590007A02031DC32A7708F7007A08F8002208B8
:1005A000F9002308FA002408B600B60CFA0CF90C7E
:1005B000F80CF70CB60CFA0CF90CF80CF70CB60C9E
:1005C000FA0CF90CF80CF70CB60CFA0CF90CF80C48
:1005D000F70CB60CFA0CF90CF80CF70C08003A08FA
:1005E0003602F7003708F8003B08031C3B0FF802FF
:1005F0003808F9003C08031C3C0FF9023908FA00DE
:100600003D08031C3D0FFA028A150A12EB29083037
:10061000C002031C172B4030840083130310800C8E
:1006200000080319172B152B0000800B142B080052
:1006300083160510831205100230BF00F830C00089
:100640000723BF0B1E2B8316051402308312BF0035
:10065000F830C0000723BF0B282B83160514831224
:100660000800C0014008073C031C502B83160510EE
:10067000831205103B2B3C2B0310BF0C0318422B9D
:100680000510432B0514831605102730F700F70BD0
:10069000472B4A2B05144C2B4D2B8312C00A322BAF
:1006A0000800BF013F08073C031C732B831605108D
:1006B000831205105B2B5C2B831605140430F700A6
:1006C000F70B602B632B00000514831205186A2BAF
:1006D00003106B2B0314C00C4F30F700F70B6E2B7D
:1006E000712BBF0A522B4008F8000800B6011823EE
:1006F000CC30BF0031234430BF003123B608031D86
:10070000852B51237808B6007E2B1823CC30BF00F0
:100710003123BE30BF00312351237808B700512365
:100720007808B8003808BA003708B9003A08C0009D
:100730003908BF008E30F7004008F8003F08F90084
:10074000FA01C01FA82BF809F909F90A0319F80AD8
:10075000F808031DB52B7908F800F9010830F702F5
:10076000F808031DB52BF701BE2B0310F81BBC2B9B
:10077000F90DF80DF703B52BC01FF8137A08C20066
:100780007908C1007808C0007708BF004208C60099
:100790004108C5004008C4003F08C300CA01C901A0
:1007A000C8018330C70043080319982CCF004708BD
:1007B0000319982CCF02031CE22B7F30CF070318BC
:1007C000982CE82B8130CF02031C982C0319982C0D
:1007D0004F08F700F801F901FA01CE014408CD00F5
:1007E000CD174508CC004608CB001930CF004A0889
:1007F000CB0203180B2C0130CC0203180B2CCD02BA
:1008000003180B2CCE0203180B2CCE0ACD0ACC0AEF
:100810004A08CB073D2C4908CC020318262C01308E
:10082000CD020318262CCE020318262CCE0ACD0AA0
:100830004908CC074A08CB07031C3D2CCC0A031DF2
:100840003D2CCD0A031D3D2CCE0A3D2C4808803896
:10085000CD0203183C2C0130CE0203183C2CCE0AEA
:1008600048088038CD074908CC07031C1A2CCD0A4C
:10087000031D1A2CCE0A1A2C7A14CF0B402C4B2CA9
:100880000310CB0DCC0DCD0DCE0D0310FA0DF90DCF
:10089000F80DD00DF72B501C532C0310F80CF90C4D
:1008A000FA0CD00C562CF7030319982CD01B7F2C74
:1008B0000310CB0DCC0DCD0DCE0D4A08CB02031885
:1008C0006B2C0130CC0203186B2CCD0203186B2C5F
:1008D000CE02031C8E2C4908CC020318762C013062
:1008E000CD020318762CCE02031C8E2C48088038CB
:1008F000CD0203187F2C0130CE02031C8E2CFA0A85
:10090000031D8E2CF90A031D8E2CF80A031D8E2C54
:10091000F70A0319982CF80CF90CFA0C4408CF00CC
:100920004808CF06CF1F962CF8179C2CF8139C2C48
:10093000F701F801F901FA017A08BE007908BD0053
:100940007808BC007708BB00C830C40020203B08F2
:10095000F7003C08F8003D08F9003E08FA008A1547
:100960000A12072A271D392DB7012808B6008E3034
:10097000F7003708F8003608F900FA01F808031DF7
:10098000CB2C7908F800F9010830F702F808031DAC
:10099000CB2CF701D32C0310F81BD22CF90DF80D3A
:1009A000F703CB2CF8132C08B9002B08B8002A0841
:1009B000B7002908B6007A08BD007908BC0078089D
:1009C000BB007708BA003708BE003B08BE06BE1F52
:1009D000EE2C03110310B71B0314212D3708BE00A2
:1009E0003A08BF003608BF020319FC2CBE1F212D98
:1009F0000308013A8300212D3B08BF003708BF02DE
:100A00000319082DBE1F212D0308013A8300212D53
:100A10003C08BF003808BF020319142DBE1F212D4A
:100A20000308013A8300212D3D08BF003908BF02A9
:100A30000319202DBE1F212D0308013A8300212D0B
:100A40000310031C2E2D8316851083128514271482
:100A50008316051183120515A714382D83168510EA
:100A60008312851027108316051183120511A71014
:100A70004F2D271C402D8316851083128514442D7D
:100A80008316851083128510A71C4B2D8316051124
:100A9000831205154F2D83160511831205110800C9
:100AA0003D08F8013C020318582D3C08F700642D5E
:100AB000F7010830BE00BC0DF70D3D0877020318A2
:100AC000F700F80DBE0B5B2D080043080319D52D68
:100AD000CB0047080319D52DCB070318762D7F309F
:100AE000CB02031CD52D0319D52D7A2D8130CB07D0
:100AF0000318D52D4B08F700F801F901FA01440855
:100B0000CF00CF174508CE004608CD001830CB00E7
:100B1000CC014D1CA32D4A08FA07031C952DF90A98
:100B2000031D952DF80A0319CC174908F907031C72
:100B30009C2DF80A0319CC174808C500C5174508AD
:100B4000F8070318CC17CC0DF80CF90CFA0CCF0CE5
:100B5000CE0CCD0C0310CB0B882D0130F7070318FA
:100B6000D52DF81BBA2DCF0DFA0DF90DF80DF703A1
:100B70000319D52DCF1FCB2DFA0A031DCB2DF90A52
:100B8000031DCB2DF80A031DCB2DF80CF90CFA0C24
:100B9000F70A0319D52D4408CC004808CC06CC1F11
:100BA000D32DF817D92DF813D92DF701F801F90134
:100BB000FA0108004308B63CC300FA014408C70024
:100BC000C4170310C40CC50CC60CFA0CF90CF80CB5
:100BD000F70CC30BE12DC71FF82DF709F809F90928
:100BE000FA09F70A0319F80A0319F90A0319FA0AA4
:100BF00008008318FE2D4B3084008313F701F801A1
:100C0000F901FA01CB01CC01CD01CE014A0849041A
:100C10004804470403193C2E2030CF000310C30DB5
:100C2000C40DC50DC60DCB0DCC0DCD0DCE0D4A0896
:100C30004E02031D252E49084D02031D252E48088E
:100C40004C02031D252E47084B02031C362E470875
:100C5000CB024808031C480FCC024908031C490F6B
:100C6000CD024A08031C4A0FCE020314F70DF80DFB
:100C7000F90DFA0DCF0B0E2E4B088000840A4C089C
:100C80008000840A4D088000840A4E088000080015
:100C90000408BB003A08BD000319672E3908C600D6
:100CA0003808C5003708C4003608C300CA01C901A6
:100CB0002030C8008230C70065257A08B90079085D
:100CC000B8007808B7007708B600BD0B4E2E39087B
:100CD000C6003808C5003708C4003608C300DA2546
:100CE0007A08B9007908B8007808B7007708B60024
:100CF000B91F872EBB03BB16B609B709B809B909D6
:100D0000B60A0319B70A0319B80A0319B90A3B301E
:100D1000C2009A30C100CA30C000BF010A30BD0015
:100D20003A080319BB0A8314363084008313390848
:100D3000C6003808C5003708C4003608C30042089A
:100D4000CA004108C9004008C8003F08C700F9258B
:100D50007808F708031DBF2E3A0A3D020319BF2E7B
:100D60003B080319C12E0F393D020319B92E031890
:100D7000F12EBB1BF12E3B1BC12E2030ED2E20305F
:100D8000BB05BB1ECF2EBB123A08031DBB03770861
:100D9000BB002D30C300A7213B08F700BB013A0878
:100DA0003D02031DDD2E7708BB002E30C300A721B6
:100DB0003B08F7002030BB0500303030BB1EED2E65
:100DC000BB123A08031DBB037708BB002D30C300DC
:100DD000A7213B08F700BB013030F7077708C300B5
:100DE000A72183104208C6004108C5004008C4007E
:100DF0003F08C300CA01C901C8010A30C700F9256C
:100E00007A08C2007908C1007808C0007708BF00DE
:100E1000BD0B932E8A150A1253290408BB003A0809
:100E2000BD0003192C2F3908C6003808C500370843
:100E3000C4003608C300CA01C9012030C80082308E
:100E4000C70065257A08B9007908B8007808B700A6
:100E50007708B600BD0B132F3908C6003808C50047
:100E60003708C4003608C300DA257A08B9007908C3
:100E7000B8007808B7007708B600B91F4C2FBB033D
:100E8000BB16B609B709B809B909B60A0319B70AF2
:100E90000319B80A0319B90A3B30C2009A30C100DD
:100EA000CA30C000BF010A30BD003A080319BB0AAE
:100EB00083143630840083133908C6003808C5000F
:100EC0003708C4003608C3004208CA004108C900F8
:100ED0004008C8003F08C700F9257808F708031D37
:100EE000842F3A0A3D020319842F3B080319862FE9
:100EF0000F393D0203197E2F0318B62FBB1BB62FE7
:100F00003B1B862F2030B22F2030BB05BB1E942FF9
:100F1000BB123A08031DBB037708BB002D30C3008A
:100F200029223B08F700BB013A083D02031DA22F0E
:100F30007708BB002E30C30029223B08F700203081
:100F4000BB0500303030BB1EB22FBB123A08031D68
:100F5000BB037708BB002D30C30029223B08F700F4
:100F6000BB013030F7077708C300292283104208FD
:100F7000C6004108C5004008C4003F08C300CA01BC
:100F8000C901C8010A30C700F9257A08C2007908EA
:100F9000C1007808C0007708BF00BD0B582F8A1524
:100FA0000A126229831686178312861BD52F0830F2
:100FB000F700B601F717EA2FF713EA2F0310861B85
:100FC0000314B60C7717EA2F7713F70BDE2F3608CA
:100FD000F800F52F3F30F71B1130F800F80BEE2F1B
:100FE000F71BDC2F771BE42FDE2F8A150A12272A26
:101000008A11B2248A15083003178D0000308F0032
:101010008A110313D3218A15271C1D28C401C50179
:101020008A1195218A15093003178D0000308F0031
:101030008A110313D3218A152B28C401C5018A11F3
:1010400095218A150C3003178D0000308F008A110E
:101050000313D3218A15A71C3D280830C400C501FD
:101060008A1195218A150F3003178D0000308F00EB
:101070008A110313D3218A154C280830C400C501F6
:101080008A1195218A15123003178D0000308F00C8
:101090008A110313D3218A150F30C400C5018A11A8
:1010A00095218A15271D5E28153003178D00003005
:1010B0008F008A110313D3218A156728163003176E
:1010C0008D0000308F008A110313D3218A15C401CB
:1010D0000130C5008A1195218A155330C3008A1149
:1010E000A7218A155030C3008A11A7218A152D30F7
:1010F000C3008A11A7218A152808B6001830B70046
:101100002030371E3030B8003608F700B61F902860
:10111000F709F70A7708B6002D30B800B71737146B
:101120003608BC006430BD008A1150258A15770846
:10113000B60030307807B9003608BC000A30BD0070
:101140008A1150258A1530307707BB003030780778
:10115000BA003808F700303039020319B328B71441
:10116000B71B3715C7283808B9002030B800303011
:101170003A020319BF283714B71BB714C728031D39
:101180003714031DC7283908BA002030B9003719B1
:10119000CE28B718D3283718D828DD283808C30038
:1011A0008A11A7218A153908C3008A11A7218A1537
:1011B0003A08C3008A11A7218A153B08C3008A1187
:1011C000A7218A15193003178D0000308F000314F2
:1011D00006300313B6000B08B7008B1383160317F2
:1011E0008C170C140000000083120313B71B8B171D
:1011F0000318242903170C087F390313B7000317BA
:101200000D080313B80003170F080313B9003708BC
:10121000C3008A11A7218A15380803178D0003130C
:10122000390803178F0003130B08BA008B138316BA
:1012300003178C170C140000000083120313BA1B51
:101240008B17B60B2429452903170C0D0E0D7F397A
:101250000313B70003170D080313B80003170F0893
:101260000313B9003708C3008A11A7218A1538086B
:1012700003178D000313390803178F008D0A031914
:101280008F0A03100313B60BEB28023084002C08DE
:10129000B9002B08B8002A08B7002908B6000130A9
:1012A000BA008A11482E8A15023084002C08B90031
:1012B0002B08B8002A08B7002908B6000130BA0088
:1012C0008A110D2F8A150A30C3008A1129228A1526
:1012D000080003081F398300713083168F009001C6
:1012E0000F088312A501A401A301A201B53090004B
:1012F0008E018F018E010C10FF30A600831606139D
:1013000083120617831603170908C03989000313CF
:101310001F129F1200300317880083128701880173
:10132000890183130313A001A1018A112D298A15B4
:10133000043003178D0000308F008A110313D3216E
:101340008A15053003178D0000308F008A110313B2
:101350004B2A8A150D30C3008A1129228A150A30BA
:10136000C3008A1129228A152710A710AC01AB01EE
:10137000AA01A901A8018A11A3228A157A08B50039
:101380007908B4007808B3007708B2003508B100D6
:101390003408B0003308AF003208AE008A11A3222F
:1013A0008A157A08B1007908B0007808AF0077088C
:1013B000AE003108B9003008B8002F08B7002E0879
:1013C000B6003508BD003408BC003308BB00320845
:1013D000BA008A11EF2A8A157A08B9007908B8008C
:1013E0007808B7007708B600B908031D052AB808C1
:1013F000031D052A37081D3C0318192AFF3A031D4F
:10140000052A3608833C0318192A8A11762B8A1577
:101410007A08AC007908AB007808AA007708A90020
:1014200000203108B5003008B4002F08B3002E08A2
:10143000B200831605168312051E2715831685161E
:101440008312851E2711861BAB2A8A11D22F8A157B
:101450007808AD002D08313A0319532A033A0319CD
:10146000592A013A03195F2A073A0319652A013AF2
:1014700003196B2A033A0319722A013A0319792ACC
:101480000F3A0319802A013A0319872A483A0319A7
:101490008E2A063A0319952A123A03199C2A173AFA
:1014A0000319A32AAA2A27148A11B2248A15002014
:1014B000AA2A27108A11B2248A150020AA2AA71462
:1014C0008A11B2248A150020AA2AA7108A11B224F0
:1014D0008A150020AA2A1730A8008A11B2248A157A
:1014E0000020AA2A1830A8008A11B2248A150020E8
:1014F000AA2A1930A8008A11B2248A150020AA2A23
:101500001A30A8008A11B2248A150020AA2A1B309A
:10151000A8008A11B2248A150020AA2A1C30A8002B
:101520008A11B2248A150020AA2A1D30A8008A1127
:10153000B2248A150020AA2A1E30A8008A11B224DB
:101540008A150020AA2A1F30A8008A11B2248A1501
:0A1550000020AA2AAD01CE29630095
:04400E00E42FFF3F5D
:00000001FF
;PIC16F886
;CRC=873B  CREATED="25-Mar-20 20:52"
